:060000000A128A110C280F
:10000800FE00030EF0000A08F1000A128A114E28B9
:100018000A128A110F2883010A128A1113280A1258
:100028008A115E200A128A110A128A1175200A1290
:100038008A110A128A113A200A128A110A128A119E
:100048006C200A128A11831203139F149F182D28FB
:100058002E282A281030F300F30B302800008312D2
:1000680003139F142A280A128A110C2883160313D3
:100078009F131F129F12831203131F083F39403822
:100088009F00C3309F051F141030F200F20B4A285E
:1000980000000800831203130C1F53285428572804
:1000A8000C131E08870071088A00700E8300FE0E6C
:1000B8007E0E09000130831603178800013083166D
:1000C8000313850087018312031385018701080044
:1000D8008B170B17831603130C17831203130C13B8
:1000E8000800831603130F088F3960388F000F1428
:0200F8000800FE
:08400000FF3FFF3FFF3FFF3FC0
:04400E00D420FF3F7C
:00000001FF
